{
  "contractName": "EventContract",
  "abi": [
    {
      "inputs": [
        {
          "internalType": "uint256",
          "name": "",
          "type": "uint256"
        }
      ],
      "name": "events",
      "outputs": [
        {
          "internalType": "address",
          "name": "organizer",
          "type": "address"
        },
        {
          "internalType": "string",
          "name": "name",
          "type": "string"
        },
        {
          "internalType": "uint256",
          "name": "date",
          "type": "uint256"
        },
        {
          "internalType": "uint256",
          "name": "price",
          "type": "uint256"
        },
        {
          "internalType": "uint256",
          "name": "ticketCount",
          "type": "uint256"
        },
        {
          "internalType": "uint256",
          "name": "ticketRemain",
          "type": "uint256"
        }
      ],
      "stateMutability": "view",
      "type": "function",
      "constant": true
    },
    {
      "inputs": [],
      "name": "nextId",
      "outputs": [
        {
          "internalType": "uint256",
          "name": "",
          "type": "uint256"
        }
      ],
      "stateMutability": "view",
      "type": "function",
      "constant": true
    },
    {
      "inputs": [
        {
          "internalType": "address",
          "name": "",
          "type": "address"
        },
        {
          "internalType": "uint256",
          "name": "",
          "type": "uint256"
        }
      ],
      "name": "tickets",
      "outputs": [
        {
          "internalType": "uint256",
          "name": "",
          "type": "uint256"
        }
      ],
      "stateMutability": "view",
      "type": "function",
      "constant": true
    },
    {
      "inputs": [
        {
          "internalType": "string",
          "name": "name",
          "type": "string"
        },
        {
          "internalType": "uint256",
          "name": "date",
          "type": "uint256"
        },
        {
          "internalType": "uint256",
          "name": "price",
          "type": "uint256"
        },
        {
          "internalType": "uint256",
          "name": "ticketCount",
          "type": "uint256"
        }
      ],
      "name": "createEvent",
      "outputs": [],
      "stateMutability": "nonpayable",
      "type": "function"
    },
    {
      "inputs": [
        {
          "internalType": "uint256",
          "name": "id",
          "type": "uint256"
        },
        {
          "internalType": "uint256",
          "name": "quantity",
          "type": "uint256"
        }
      ],
      "name": "buyTicket",
      "outputs": [],
      "stateMutability": "payable",
      "type": "function",
      "payable": true
    },
    {
      "inputs": [
        {
          "internalType": "uint256",
          "name": "id",
          "type": "uint256"
        },
        {
          "internalType": "uint256",
          "name": "quantity",
          "type": "uint256"
        },
        {
          "internalType": "address",
          "name": "to",
          "type": "address"
        }
      ],
      "name": "transferTicket",
      "outputs": [],
      "stateMutability": "nonpayable",
      "type": "function"
    }
  ],
  "bytecode": "0x608060405234801561001057600080fd5b50611197806100206000396000f3fe6080604052600436106100555760003560e01c80630374ab0b1461005a5780630b79143014610083578063298ec208146100c557806361b8ce8c146100e1578063dae7a13c1461010c578063f086a09b14610149575b600080fd5b34801561006657600080fd5b50610081600480360381019061007c9190610a14565b610172565b005b34801561008f57600080fd5b506100aa60048036038101906100a59190610a97565b6102fb565b6040516100bc96959493929190610b9c565b60405180910390f35b6100df60048036038101906100da9190610c04565b6103df565b005b3480156100ed57600080fd5b506100f66105a1565b6040516101039190610c44565b60405180910390f35b34801561011857600080fd5b50610133600480360381019061012e9190610c8b565b6105a7565b6040516101409190610c44565b60405180910390f35b34801561015557600080fd5b50610170600480360381019061016b9190610ccb565b6105cc565b005b4283116101b4576040517f08c379a00000000000000000000000000000000000000000000000000000000081526004016101ab90610d6a565b60405180910390fd5b600081116101f7576040517f08c379a00000000000000000000000000000000000000000000000000000000081526004016101ee90610dd6565b60405180910390fd5b6040518060c001604052803373ffffffffffffffffffffffffffffffffffffffff16815260200185815260200184815260200183815260200182815260200182815250600080600254815260200190815260200160002060008201518160000160006101000a81548173ffffffffffffffffffffffffffffffffffffffff021916908373ffffffffffffffffffffffffffffffffffffffff16021790555060208201518160010190805190602001906102b19291906107e1565b5060408201518160020155606082015181600301556080820151816004015560a08201518160050155905050600260008154809291906102f090610e25565b919050555050505050565b60006020528060005260406000206000915090508060000160009054906101000a900473ffffffffffffffffffffffffffffffffffffffff169080600101805461034490610e9c565b80601f016020809104026020016040519081016040528092919081815260200182805461037090610e9c565b80156103bd5780601f10610392576101008083540402835291602001916103bd565b820191906000526020600020905b8154815290600101906020018083116103a057829003601f168201915b5050505050908060020154908060030154908060040154908060050154905086565b60008060008481526020019081526020016000209050600081600201540361043c576040517f08c379a000000000000000000000000000000000000000000000000000000000815260040161043390610f19565b60405180910390fd5b42816002015411610482576040517f08c379a000000000000000000000000000000000000000000000000000000000815260040161047990610f85565b60405180910390fd5b8181600301546104929190610fa5565b34146104d3576040517f08c379a00000000000000000000000000000000000000000000000000000000081526004016104ca9061104b565b60405180910390fd5b818160050154101561051a576040517f08c379a0000000000000000000000000000000000000000000000000000000008152600401610511906110b7565b60405180910390fd5b8181600501600082825461052e91906110d7565b9250508190555081600160003373ffffffffffffffffffffffffffffffffffffffff1673ffffffffffffffffffffffffffffffffffffffff16815260200190815260200160002060008581526020019081526020016000206000828254610595919061110b565b92505081905550505050565b60025481565b6001602052816000526040600020602052806000526040600020600091509150505481565b60008060008581526020019081526020016000206002015403610624576040517f08c379a000000000000000000000000000000000000000000000000000000000815260040161061b90610f19565b60405180910390fd5b42600080858152602001908152602001600020600201541161067b576040517f08c379a000000000000000000000000000000000000000000000000000000000815260040161067290610f85565b60405180910390fd5b81600160003373ffffffffffffffffffffffffffffffffffffffff1673ffffffffffffffffffffffffffffffffffffffff168152602001908152602001600020600085815260200190815260200160002054101561070e576040517f08c379a0000000000000000000000000000000000000000000000000000000008152600401610705906110b7565b60405180910390fd5b81600160003373ffffffffffffffffffffffffffffffffffffffff1673ffffffffffffffffffffffffffffffffffffffff1681526020019081526020016000206000858152602001908152602001600020600082825461076e91906110d7565b9250508190555081600160008373ffffffffffffffffffffffffffffffffffffffff1673ffffffffffffffffffffffffffffffffffffffff168152602001908152602001600020600085815260200190815260200160002060008282546107d5919061110b565b92505081905550505050565b8280546107ed90610e9c565b90600052602060002090601f01602090048101928261080f5760008555610856565b82601f1061082857805160ff1916838001178555610856565b82800160010185558215610856579182015b8281111561085557825182559160200191906001019061083a565b5b5090506108639190610867565b5090565b5b80821115610880576000816000905550600101610868565b5090565b6000604051905090565b600080fd5b600080fd5b600080fd5b600080fd5b6000601f19601f8301169050919050565b7f4e487b7100000000000000000000000000000000000000000000000000000000600052604160045260246000fd5b6108eb826108a2565b810181811067ffffffffffffffff8211171561090a576109096108b3565b5b80604052505050565b600061091d610884565b905061092982826108e2565b919050565b600067ffffffffffffffff821115610949576109486108b3565b5b610952826108a2565b9050602081019050919050565b82818337600083830152505050565b600061098161097c8461092e565b610913565b90508281526020810184848401111561099d5761099c61089d565b5b6109a884828561095f565b509392505050565b600082601f8301126109c5576109c4610898565b5b81356109d584826020860161096e565b91505092915050565b6000819050919050565b6109f1816109de565b81146109fc57600080fd5b50565b600081359050610a0e816109e8565b92915050565b60008060008060808587031215610a2e57610a2d61088e565b5b600085013567ffffffffffffffff811115610a4c57610a4b610893565b5b610a58878288016109b0565b9450506020610a69878288016109ff565b9350506040610a7a878288016109ff565b9250506060610a8b878288016109ff565b91505092959194509250565b600060208284031215610aad57610aac61088e565b5b6000610abb848285016109ff565b91505092915050565b600073ffffffffffffffffffffffffffffffffffffffff82169050919050565b6000610aef82610ac4565b9050919050565b610aff81610ae4565b82525050565b600081519050919050565b600082825260208201905092915050565b60005b83811015610b3f578082015181840152602081019050610b24565b83811115610b4e576000848401525b50505050565b6000610b5f82610b05565b610b698185610b10565b9350610b79818560208601610b21565b610b82816108a2565b840191505092915050565b610b96816109de565b82525050565b600060c082019050610bb16000830189610af6565b8181036020830152610bc38188610b54565b9050610bd26040830187610b8d565b610bdf6060830186610b8d565b610bec6080830185610b8d565b610bf960a0830184610b8d565b979650505050505050565b60008060408385031215610c1b57610c1a61088e565b5b6000610c29858286016109ff565b9250506020610c3a858286016109ff565b9150509250929050565b6000602082019050610c596000830184610b8d565b92915050565b610c6881610ae4565b8114610c7357600080fd5b50565b600081359050610c8581610c5f565b92915050565b60008060408385031215610ca257610ca161088e565b5b6000610cb085828601610c76565b9250506020610cc1858286016109ff565b9150509250929050565b600080600060608486031215610ce457610ce361088e565b5b6000610cf2868287016109ff565b9350506020610d03868287016109ff565b9250506040610d1486828701610c76565b9150509250925092565b7f4576656e742064617465206d75737420626520696e2074686520667574757265600082015250565b6000610d54602083610b10565b9150610d5f82610d1e565b602082019050919050565b60006020820190508181036000830152610d8381610d47565b9050919050565b7f4d75737420637265617465206174206c65617374206f6e65207469636b657400600082015250565b6000610dc0601f83610b10565b9150610dcb82610d8a565b602082019050919050565b60006020820190508181036000830152610def81610db3565b9050919050565b7f4e487b7100000000000000000000000000000000000000000000000000000000600052601160045260246000fd5b6000610e30826109de565b91507fffffffffffffffffffffffffffffffffffffffffffffffffffffffffffffffff8203610e6257610e61610df6565b5b600182019050919050565b7f4e487b7100000000000000000000000000000000000000000000000000000000600052602260045260246000fd5b60006002820490506001821680610eb457607f821691505b602082108103610ec757610ec6610e6d565b5b50919050565b7f4576656e7420646f6573206e6f74206578697374000000000000000000000000600082015250565b6000610f03601483610b10565b9150610f0e82610ecd565b602082019050919050565b60006020820190508181036000830152610f3281610ef6565b9050919050565b7f4576656e742068617320616c7265616479206f63637572726564000000000000600082015250565b6000610f6f601a83610b10565b9150610f7a82610f39565b602082019050919050565b60006020820190508181036000830152610f9e81610f62565b9050919050565b6000610fb0826109de565b9150610fbb836109de565b9250817fffffffffffffffffffffffffffffffffffffffffffffffffffffffffffffffff0483118215151615610ff457610ff3610df6565b5b828202905092915050565b7f496e636f72726563742045746865722073656e74000000000000000000000000600082015250565b6000611035601483610b10565b915061104082610fff565b602082019050919050565b6000602082019050818103600083015261106481611028565b9050919050565b7f4e6f7420656e6f756768207469636b6574730000000000000000000000000000600082015250565b60006110a1601283610b10565b91506110ac8261106b565b602082019050919050565b600060208201905081810360008301526110d081611094565b9050919050565b60006110e2826109de565b91506110ed836109de565b925082821015611100576110ff610df6565b5b828203905092915050565b6000611116826109de565b9150611121836109de565b9250827fffffffffffffffffffffffffffffffffffffffffffffffffffffffffffffffff0382111561115657611155610df6565b5b82820190509291505056fea2646970667358221220492fa8d651423b4b5945ad6c8bafa35de2e21076bb934a4f5ee8c5cc2d7f9a3364736f6c634300080d0033",
  "immutableReferences": {},
  "source": "// SPDX-License-Identifier: Unlicense1\r\n\r\npragma solidity ^0.8.13;\r\n\r\ncontract EventContract {\r\n    struct Event {\r\n        address organizer;\r\n        string name;\r\n        uint date;\r\n        uint price;\r\n        uint ticketCount;\r\n        uint ticketRemain;\r\n    }\r\n\r\n    mapping(uint => Event) public events;\r\n    mapping(address => mapping(uint => uint)) public tickets;\r\n    uint public nextId;\r\n\r\n    function createEvent(\r\n        string memory name,\r\n        uint date,\r\n        uint price,\r\n        uint ticketCount\r\n    ) external {\r\n        require(date > block.timestamp, \"Event date must be in the future\");\r\n        require(ticketCount > 0, \"Must create at least one ticket\");\r\n\r\n        events[nextId] = Event(\r\n            msg.sender,\r\n            name,\r\n            date,\r\n            price,\r\n            ticketCount,\r\n            ticketCount\r\n        );\r\n        nextId++;\r\n    }\r\n\r\n    function buyTicket(uint id, uint quantity) external payable {\r\n        Event storage _event = events[id];\r\n        require(_event.date != 0, \"Event does not exist\");\r\n        require(_event.date > block.timestamp, \"Event has already occurred\");\r\n        require(\r\n            msg.value == (_event.price * quantity),\r\n            \"Incorrect Ether sent\"\r\n        );\r\n        require(_event.ticketRemain >= quantity, \"Not enough tickets\");\r\n\r\n        _event.ticketRemain -= quantity;\r\n        tickets[msg.sender][id] += quantity;\r\n    }\r\n\r\n    function transferTicket(\r\n        uint id,\r\n        uint quantity,\r\n        address to\r\n    ) external {\r\n        require(events[id].date != 0, \"Event does not exist\");\r\n        require(events[id].date > block.timestamp, \"Event has already occurred\");\r\n        require(tickets[msg.sender][id] >= quantity, \"Not enough tickets\");\r\n\r\n        tickets[msg.sender][id] -= quantity;\r\n        tickets[to][id] += quantity;\r\n    }\r\n}\r\n",
  "sourcePath": "D:\\WEB DEV\\Hardhat\\contracts\\EventContract.sol",
  "compiler": {
    "name": "solc",
    "version": "0.8.13+commit.abaa5c0e.Emscripten.clang"
  },
  "schemaVersion": "3.4.16",
  "updatedAt": "2024-10-31T07:35:41.806Z",
  "networkType": "ethereum",
  "devdoc": {
    "kind": "dev",
    "methods": {},
    "version": 1
  },
  "userdoc": {
    "kind": "user",
    "methods": {},
    "version": 1
  }
}